:100000000C9479000C94A1000C94A1000C946A0348
:100010000C946A030C946A030C94A1000C94A10044
:100020000C94A1000C94A1000C94A1000C94A100CC
:100030000C94A1000C94A1000C94A1000C94A100BC
:100040000C9420030C94A1000C94EE020C94C802B2
:100050000C94A1000C94A1000C94A1000C94A1009C
:100060000C94A1000C94A100180822083108030880
:10007000310806082D0837083108310831083108E1
:1000800031083108310831083708310831083108A2
:1000900031083108000000080002010000030407D5
:1000A0000000000000000000000000002300260007
:1000B000290000000000240027002A0000000000A2
:1000C000250028002B000404040404040404020294
:1000D00002020202030303030303010204081020C7
:1000E000408001020408102001020408102031049D
:1000F000AB0811241FBECFEFD8E0DEBFCDBF11E0AB
:10010000A0E0B1E0E6EEF5E102C005900D92AE335D
:10011000B107D9F722E0AEE3B1E001C01D92AD36E0
:10012000B207E1F710E0C8E7D0E004C02197FE0174
:100130000E94C70AC737D107C9F70E9430050C943F
:10014000E60A0C940000CF92DF92EF92FF920F9399
:100150001F93CF93DF936C017A018B01C0E0D0E055
:10016000CE15DF0581F0D8016D918D01D601ED919D
:10017000FC910190F081E02DC6010995892B11F0C9
:100180002196EECF7E01C701DF91CF911F910F9194
:10019000FF90EF90DF90CF900895FC01538D448D38
:1001A000252F30E0842F90E0821B930B541710F022
:1001B000CF96089501970895FC01918D828D98172F
:1001C00061F0828DDF01A80FB11D5D968C91928D3B
:1001D0009F5F9F73928F90E008958FEF9FEF089538
:1001E000FC01918D828D981731F0828DE80FF11D01
:1001F000858D90E008958FEF9FEF0895FC01918D1C
:10020000228D892F90E0805C9F4F821B91098F7314
:10021000992708958BE891E00E94FE0021E0892B48
:1002200009F420E0822F0895FC01848DDF01A80FDE
:10023000B11DA35ABF4F2C91848D90E001968F730E
:100240009927848FA689B7892C93A089B1898C912D
:10025000837080648C93938D848D981306C002887C
:10026000F389E02D80818F7D80830895EF92FF9246
:100270000F931F93CF93DF93EC0181E0888F9B8DC9
:100280008C8D981305C0E889F989808185FD26C089
:10029000F62E0B8D10E00F5F1F4F0F731127E02E0E
:1002A0008C8DE8120CC00FB607FCFACFE889F989EB
:1002B000808185FFF5CFCE010E941401F1CF8B8D97
:1002C000FE01E80FF11DE35AFF4FF0829FB7F8944B
:1002D0000B8FEA89FB89808180620AC09FB7F894FE
:1002E000EE89FF896083E889F98980818370806461
:1002F00080839FBF81E090E0DF91CF911F910F91AC
:10030000FF90EF900895CF93DF93EC01888D8823C1
:10031000C9F0EA89FB89808185FD05C0A889B98972
:100320008C9186FD0FC00FB607FCF5CF808185FF4D
:10033000F2CFA889B9898C9185FFEDCFCE010E94BB
:100340001401E7CFDF91CF91089580E090E0892BF1
:1003500029F00E940A0181110C94000008953FB712
:10036000F89480917F0190918001A0918101B091DA
:10037000820126B5A89B05C02F3F19F00196A11D4B
:10038000B11D3FBFBA2FA92F982F8827820F911D2B
:10039000A11DB11DBC01CD0142E0660F771F881F72
:1003A000991F4A95D1F708958F929F92AF92BF926D
:1003B000CF92DF92EF92FF926B017C010E94AF011E
:1003C0004B015C01C114D104E104F104F1F00E947D
:1003D000AF01DC01CB0188199909AA09BB09883E44
:1003E0009340A105B10570F321E0C21AD108E108DC
:1003F000F10888EE880E83E0981EA11CB11CC11480
:10040000D104E104F10419F7DDCFFF90EF90DF9004
:10041000CF90BF90AF909F908F90089520918501CD
:10042000309186012817390771F4909183018091EA
:100430008401981741F0E0918301F0E0E25CFE4F07
:10044000808190E008958FEF9FEF089508951F93A6
:10045000CF93DF93DC015C968D919C915D97009723
:1004600039F421E030E013963C932E9312973BC071
:100470005196ED91FC91529750962C915097322FB6
:1004800030951FB75E964C915E97742F727041FD48
:100490006095F8944081772311F0422B01C04323EB
:1004A0004083EC012197F1F748E0508160FF02C0E2
:1004B000522B01C053235083EC012197F1F766952D
:1004C000415099F78081772319F08323808302C0FC
:1004D000282B20831FBF5C968D919C915D9701977F
:1004E000F1F781E090E0DF91CF911F910895209185
:1004F0008501309186012817390771F480918401B4
:100500002091830190E0805C9F4F821B910960E401
:1005100070E00E94910A089580E090E00895209193
:1005200085013091860128173907B9F4909183012C
:1005300080918401981789F0E0918301F0E0E25CFA
:10054000FE4F80812091830130E02F5F3F4F2F735A
:1005500033272093830190E008958FEF9FEF089554
:10056000089580E090E00895009769F0FC01019003
:100570000020E9F73197AF01481B590BBC018BE80C
:1005800091E00C94A30080E090E008950E94E10ABD
:100590001F920F920FB60F9211242F933F934F93F8
:1005A0005F936F937F938F939F93AF93BF93EF93DB
:1005B000FF938BE891E00E941401FF91EF91BF91AE
:1005C000AF919F918F917F916F915F914F913F91EB
:1005D0002F910F900FBE0F901F9018951F920F92A2
:1005E0000FB60F9211242F938F939F93EF93FF9346
:1005F000E0919B01F0919C018081E091A101F0913B
:10060000A20182FD12C090818091A4018F5F8F733F
:100610002091A501821751F0E091A401F0E0E55787
:10062000FE4F958F8093A40101C08081FF91EF91CF
:100630009F918F912F910F900FBE0F901F90189543
:100640001F920F920FB60F9211242F933F938F9307
:100650009F93AF93BF938091870190918801A09160
:100660008901B0918A0130917E0123E0230F2D375B
:1006700020F40196A11DB11D05C026E8230F0296A6
:10068000A11DB11D20937E01809387019093880165
:10069000A0938901B0938A0180917F01909180019C
:1006A000A0918101B09182010196A11DB11D80939D
:1006B0007F0190938001A0938101B0938201BF914B
:1006C000AF919F918F913F912F910F900FBE0F90FF
:1006D0001F9018951F920F920FB60F9211242F930F
:1006E0003F934F935F936F937F938F939F93AF93BA
:1006F000BF93EF93FF93E0918501F09186013097CE
:1007000009F451C0968DA685B785858591FF04C0F3
:100710009C91892329F447C09C91892309F043C007
:10072000A389B4899C918589809589238C93868936
:1007300097890197F1F7608D718DA685B7855585ED
:1007400038E020E0CB010197F1F7822F90E09595FA
:100750008795282F4C91452309F02068315091F757
:10076000868D81FD20958091840190E001968F73A4
:10077000992730918301381749F0A0918401B0E0A6
:10078000A25CBE4F2C938093840103C0868D816050
:10079000868F828D938D0197F1F7A389B4899C91FF
:1007A0008589892B8C93FF91EF91BF91AF919F9198
:1007B0008F917F916F915F914F913F912F910F900A
:1007C0000FBE0F901F90189590E0FC01EC56FF4F64
:1007D0002491FC01E652FF4F3491FC01EA53FF4F94
:1007E000E491EE2309F43CC0222339F1233091F047
:1007F00038F42130A9F0223001F584B58F7D12C084
:10080000273091F02830A1F02430B9F48091800095
:100810008F7D03C0809180008F77809380000DC012
:1008200084B58F7784BD09C08091B0008F7703C0F5
:100830008091B0008F7D8093B000F0E0EE0FFF1F3D
:10084000E454FF4FA591B4919FB7F894611104C08F
:100850008C913095382302C0EC913E2B3C939FBF86
:100860000895CF93DF9310928E0110928D0188EE40
:1008700093E0A0E0B0E080938F0190939001A0936B
:100880009101B09392012EE031E030938C012093DE
:100890008B0125EC30E0309398012093970124ECF4
:1008A00030E030939A012093990120EC30E03093AE
:1008B0009C0120939B0121EC30E030939E0120931A
:1008C0009D0122EC30E03093A00120939F0126ECA3
:1008D00030E03093A2012093A1011092A401109264
:1008E000A5011092A6011092A70110925102109238
:1008F00050028093520290935302A0935402B093FB
:10090000550280E291E090934F0280934E02109244
:1009100065021092640210926702109266021092B1
:1009200069021092680210926B0210926A02609142
:100930006C026E7F6D7F60936C026695617081E0E2
:1009400068278BE00E94E403E5EEF0E02491E1EDFE
:10095000F0E08491882399F090E0880F991FFC01C2
:10096000EE54FF4FA591B491FC01E454FF4F8591E3
:1009700094918FB7F894EC91E22BEC938FBFE5EE56
:10098000F0E0E491E0935E02E1EDF0E0E491F0E06C
:10099000EE0FFF1FE454FF4F8591949190936002F6
:1009A00080935F02E4EEF0E02491E0EDF0E08491CA
:1009B0008823C1F090E0880F991FFC01EE54FF4F8F
:1009C000C591D491FC01E454FF4FA591B4919FB718
:1009D000F8948881E22FE0958E2388838C91E82318
:1009E000EC939FBF80916C0281FD04C061E08AE0BE
:1009F0000E94E4038AE080935A02E4EEF0E0E4917E
:100A0000E0935B02E0EDF0E0E491F0E0EE0FFF1F19
:100A1000E855FF4F2591349130935D0220935C029D
:100A200044EF51E060E070E040932E0250932F02BB
:100A30006093300270933102E0E0F1E0ACE3B2E0A9
:100A400001900D928A95E1F71092460282E0809320
:100A5000470210924C0210924D02DF91CF910895FF
:100A6000CF93DF93CDB7DEB7A1970FB6F894DEBF73
:100A70000FBECDBF789484B5826084BD84B581609B
:100A800084BD85B5826085BD85B5816085BD809159
:100A90006E00816080936E001092810080918100D1
:100AA00082608093810080918100816080938100C9
:100AB000809180008160809380008091B10084608B
:100AC0008093B1008091B00081608093B0008091EC
:100AD0007A00846080937A0080917A0082608093AB
:100AE0007A0080917A00816080937A0080917A0008
:100AF000806880937A001092C100E0919B01F09190
:100B00009C0182E08083E0919701F091980110822E
:100B1000E0919901F0919A018FEC80831092A301EA
:100B2000E0919F01F091A00186E08083E0919D011A
:100B3000F0919E01808180618083E0919D01F09120
:100B40009E01808188608083E0919D01F0919E01EB
:100B5000808180688083E0919D01F0919E01808179
:100B60008F7D808310926902109268021092670252
:100B70001092660210926502109264028DE991E073
:100B800090936B0280936A0290915A02963108F01A
:100B900058C02DEB30E030936502209364022BE9BE
:100BA00031E030936702209366022CE231E030930B
:100BB00069022093680240916800983058F031E053
:100BC0009E3008F430E021E0822F01C0880F3A9572
:100BD000EAF701C084E0842B80936800983038F0F5
:100BE0009E3040F0963148F020E030E008C02DE61D
:100BF00030E005C02BE630E002C02CE630E0309358
:100C0000620220936102983030F481E001C0880FC5
:100C10009A95EAF70EC0292F30E09E3018F428503C
:100C2000310902C02E50310981E001C0880F2A9598
:100C3000EAF78093630280916A0290916B020197B8
:100C4000F1F78091680290916902892B49F1E09156
:100C50008501F091860182E0EE34F80709F13097C2
:100C600039F0A389B4899C918589809589238C93D7
:100C700080916C028E7F80936C021092840110929E
:100C800083018EE492E09093860180938501E09148
:100C90006102F0916202908180916302892B8083CE
:100CA00013E4212E12E0312E90E490937C00809189
:100CB0007A00806480937A0080917A0086FDFCCF70
:100CC000609178008091790070E0782B072E000CFD
:100CD000880B990B0E946A0920E030E040EA50E45A
:100CE0000E941F0A20E030E040E85AE30E941F0AF9
:100CF0006B017C014B015C019B01AC010E948C0AE1
:100D0000882319F08EE291E01AC026013701E89499
:100D100077F82FEF3FEF4FE75FE7C301B2010E9483
:100D20008C0A81110FC02FEF3FEF4FE75FE7C30140
:100D3000B2010E94340918162CF482E391E00E945B
:100D4000B402A0C02FEF3FEF4FE75FE4C701B60149
:100D50000E941A0A18161CF486E391E0F0CF2FEFD8
:100D60003FEF4FE75FECC701B6010E94340987FDF2
:100D7000F3CF20E030E0A901C701B6010E94340999
:100D800087FF0BC06DE28BE891E00E9436014601BF
:100D90005701B7FAB094B7F8B0942AE037ED43EAB8
:100DA0005BE3C501B4010E94C8086B017C010E948D
:100DB00039094B015C010E9468099B01AC01C70124
:100DC000B6010E94C7082B013C0119A27E01A1E2D5
:100DD000EA0EF11C0E2DDF2CC501B4012AE030E033
:100DE00040E050E00E94A50A49015A01605DF70108
:100DF00062937F01232B242B252B71F7CF010E94B7
:100E0000B4026EE28BE891E00E94360113E01150CB
:100E1000C9F120E030E040E251E4C301B2010E9498
:100E20001F0A4B015C010E9439099B0140E050E020
:100E300019A2E02EFD2C562E632E742EC52ECA014B
:100E4000B9012AE030E040E050E00E94A50A605D70
:100E5000D7016E937D01211531054105510579F7C3
:100E6000CD010E94B402652D762D872D9C2D0E9408
:100E700068099B01AC01C501B4010E94C7082B01A0
:100E80003C01C5CF8AE391E00E94B40283E08093E5
:100E90003F021092410281E080934202EDE3F2E0D2
:100EA00080E090E02191820F911D2E163F06D1F730
:100EB000919581959109909343028093440280918A
:100EC0004002882309F409C111E053E0F52E62E0E5
:100ED000E62E77E0D72EEAE0CE2EF4E0BF2EA9E092
:100EE000AA2EB5E09B2E80914D02882309F4F5C00F
:100EF00060E070E0CB010E94D401809128029091C3
:100F00002902DC01ED91FC910084F185E02D099529
:100F1000892B09F4B3C060E070E0CB010E94D401DA
:100F2000009146028091280290912902DC01ED9106
:100F3000FC910284F385E02D011108C0099580938E
:100F400032028E37D1F68091460294C00995E02F87
:100F5000F0E0E85DFD4F828780914602823069F0C3
:100F6000893089F0813009F085C0909133029F3F2C
:100F700009F480C0109246027AC0909134029630F3
:100F800009F478C0F7CF80913B028F3E99F7E3E3F5
:100F9000F2E020E030E08191280F311D89E392E0FA
:100FA0008E179F07C1F78091390290E0982F88270C
:100FB00040913A02840F911D319521953109821794
:100FC0009307C1F610924602E0913502E13409F42C
:100FD000BFC0E09349028091370290E0982F8827A4
:100FE00020913802820F911D90934B0280934A0208
:100FF0004E2F50E0FA01FA97E631F105C0F5EC5CAE
:10100000FF4F0C94C70A909248022EC080FF03C085
:10101000A092480229C081FF03C0B092480224C0B8
:1010200083709927892B09F45ECFC09248021CC0B7
:1010300080FF03C0D092480217C081FF54CFE092D6
:10104000480212C080FF04C098E0909348020CC090
:1010500081FF49CFF092480207C0A6E0A093480262
:1010600003C0BBE0B093480210934C023CCF1093F6
:10107000480268C08F5F809346023FCF80914D0247
:10108000882309F430CF2FB7F8948091870190918D
:101090008801A0918901B0918A012FBF40912A0255
:1010A00050912B0260912C0270912D02841B950BA4
:1010B000A60BB70B40912E0250912F026091300287
:1010C0007091310284179507A607B70708F40BCF74
:1010D000109246021092480235C0809128029091E9
:1010E0002902DC01ED91FC910280F381E02D4AE0C0
:1010F00050E06CE372E009952FB7F8948091870176
:1011000090918801A0918901B0918A012FBF8093AD
:101110002A0290932B02A0932C02B0932D0280916F
:10112000400291E0811101C090E090934D02811145
:1011300006C06AE070E080E090E00E94D4010E9466
:10114000A501B2CD10924B0210924A0210934C02AC
:1011500010924D02C8CE80E291E090934F028093AE
:101160004E0280918501909186018E54924071F4D7
:10117000E0916102F091620290818091630280951A
:10118000892380831092860110928501089550581A
:10119000BB27AA270E94DF080C94E0090E94D2090D
:1011A00038F00E94D90920F039F49F3F19F426F451
:1011B0000C94CF090EF4E095E7FB0C94C909E92FD4
:1011C0000E94F10958F3BA1762077307840795075D
:1011D00020F079F4A6F50C94130A0EF4E0950B2E8A
:1011E000BA2FA02D0B01B90190010C01CA01A00179
:1011F0001124FF27591B99F0593F50F4503E68F1D4
:101200001A16F040A22F232F342F4427585FF3CF14
:10121000469537952795A795F0405395C9F77EF4E5
:101220001F16BA0B620B730B840BBAF09150A1F02E
:10123000FF0FBB1F661F771F881FC2F70EC0BA0FB4
:10124000621F731F841F48F4879577956795B7953C
:10125000F7959E3F08F0B0CF9395880F08F0992737
:10126000EE0F9795879508950E94A50908F481E0EF
:1012700008950E94F90988F09F5798F0B92F99278F
:10128000B751B0F0E1F0660F771F881F991F1AF071
:10129000BA95C9F714C0B13091F00E94130AB1E0B9
:1012A00008950C94130A672F782F8827B85F39F0B8
:1012B000B93FCCF3869577956795B395D9F73EF40A
:1012C00090958095709561957F4F8F4F9F4F0895B2
:1012D000E89409C097FB3EF49095809570956195D0
:1012E0007F4F8F4F9F4F9923A9F0F92F96E9BB2786
:1012F0009395F695879577956795B795F111F8CF02
:10130000FAF4BB0F11F460FF1BC06F5F7F4F8F4F6C
:101310009F4F16C0882311F096E911C0772321F062
:101320009EE8872F762F05C0662371F096E8862FFA
:1013300070E060E02AF09A95660F771F881FDAF751
:10134000880F9695879597F90895990F0008550F7E
:10135000AA0BE0E8FEEF16161706E807F907C0F03B
:1013600012161306E407F50798F0621B730B840B43
:10137000950B39F40A2661F0232B242B252B21F41D
:1013800008950A2609F4A140A6958FEF811D811DBD
:10139000089597F99F6780E870E060E008959FEFF7
:1013A00080EC089500240A941616170618060906FC
:1013B000089500240A9412161306140605060895CB
:1013C000092E0394000C11F4882352F0BB0F40F453
:1013D000BF2B11F460FF04C06F5F7F4F8F4F9F4F93
:1013E000089557FD9058440F551F59F05F3F71F015
:1013F0004795880F97FB991F61F09F3F79F087957C
:101400000895121613061406551FF2CF4695F1DF04
:1014100008C0161617061806991FF1CF8695710594
:10142000610508940895E894BB2766277727CB01C8
:1014300097F908950E94A50908F48FEF08950E9476
:10144000320A0C94E0090E94D20938F00E94D909AE
:1014500020F0952311F00C94C9090C94CF091124A4
:101460000C94140A0E94F10970F3959FC1F3950F33
:1014700050E0551F629FF001729FBB27F00DB11D18
:10148000639FAA27F00DB11DAA1F649F6627B00DA8
:10149000A11D661F829F2227B00DA11D621F739F91
:1014A000B00DA11D621F839FA00D611D221F749F9F
:1014B0003327A00D611D231F849F600D211D822FE6
:1014C000762F6A2F11249F5750409AF0F1F088230D
:1014D0004AF0EE0FFF1FBB1F661F771F881F91503A
:1014E0005040A9F79E3F510580F00C94C9090C9417
:1014F000140A5F3FE4F3983ED4F386957795679599
:10150000B795F795E7959F5FC1F7FE2B880F911D63
:101510009695879597F908950E94A509880B990BD0
:10152000089597FB072E16F4009407D077FD09D095
:101530000E94CD0A07FC05D03EF4909581959F4FFF
:101540000895709561957F4F0895A1E21A2EAA1B08
:10155000BB1BFD010DC0AA1FBB1FEE1FFF1FA21763
:10156000B307E407F50720F0A21BB30BE40BF50B60
:10157000661F771F881F991F1A9469F760957095E9
:10158000809590959B01AC01BD01CF010895EE0FB0
:10159000FF1F0590F491E02D0994AA1BBB1B51E19C
:1015A00007C0AA1FBB1FA617B70710F0A61BB70BD3
:1015B000881F991F5A95A9F780959095BC01CD0178
:1015C000089581E090E0F8940C94E60A10E0C8E7F2
:1015D000D0E004C0FE010E94C70A2196C937D10796
:0615E000C9F7F894FFCFEB
:1015E6007EFF06000100000000EF0000000036014B
:1015F600A300CD008301FE00DC00F0000000000027
:101606002702A300B102260277028F020E026E6144
:0E1616006E00696E66006F7666000D0A0000B9
:107E0000112484B714BE81FFF0D085E080938100F7
:107E100082E08093C00088E18093C10086E0809377
:107E2000C20080E18093C4008EE0C9D0259A86E02C
:107E300020E33CEF91E0309385002093840096BBD3
:107E4000B09BFECF1D9AA8958150A9F7CC24DD24C4
:107E500088248394B5E0AB2EA1E19A2EF3E0BF2EE7
:107E6000A2D0813461F49FD0082FAFD0023811F036
:107E7000013811F484E001C083E08DD089C08234E0
:107E800011F484E103C0853419F485E0A6D080C0E4
:107E9000853579F488D0E82EFF2485D0082F10E0AE
:107EA000102F00270E291F29000F111F8ED06801E7
:107EB0006FC0863521F484E090D080E0DECF843638
:107EC00009F040C070D06FD0082F6DD080E0C81688
:107ED00080E7D80618F4F601B7BEE895C0E0D1E017
:107EE00062D089930C17E1F7F0E0CF16F0E7DF06D8
:107EF00018F0F601B7BEE89568D007B600FCFDCFD4
:107F0000A601A0E0B1E02C9130E011968C91119780
:107F100090E0982F8827822B932B1296FA010C0160
:107F200087BEE89511244E5F5F4FF1E0A038BF0790
:107F300051F7F601A7BEE89507B600FCFDCF97BE46
:107F4000E89526C08437B1F42ED02DD0F82E2BD052
:107F50003CD0F601EF2C8F010F5F1F4F84911BD097
:107F6000EA94F801C1F70894C11CD11CFA94CF0C13
:107F7000D11C0EC0853739F428D08EE10CD085E9AC
:107F80000AD08FE07ACF813511F488E018D01DD067
:107F900080E101D065CF982F8091C00085FFFCCF94
:107FA0009093C60008958091C00087FFFCCF809118
:107FB000C00084FD01C0A8958091C6000895E0E648
:107FC000F0E098E1908380830895EDDF803219F02E
:107FD00088E0F5DFFFCF84E1DECF1F93182FE3DFCA
:107FE0001150E9F7F2DF1F91089580E0E8DFEE27F6
:047FF000FF270994CA
:027FFE00040479
:0400000300007E007B
:00000001FF
